{
  "contractName": "Election",
  "abi": [
    {
      "inputs": [],
      "payable": false,
      "stateMutability": "nonpayable",
      "type": "constructor"
    },
    {
      "constant": true,
      "inputs": [],
      "name": "admin",
      "outputs": [
        {
          "internalType": "address",
          "name": "",
          "type": "address"
        }
      ],
      "payable": false,
      "stateMutability": "view",
      "type": "function"
    },
    {
      "constant": false,
      "inputs": [
        {
          "internalType": "address",
          "name": "toVoter",
          "type": "address"
        },
        {
          "internalType": "address",
          "name": "adminAddress",
          "type": "address"
        }
      ],
      "name": "Register",
      "outputs": [],
      "payable": false,
      "stateMutability": "nonpayable",
      "type": "function"
    },
    {
      "constant": false,
      "inputs": [
        {
          "internalType": "uint8",
          "name": "proposal",
          "type": "uint8"
        },
        {
          "internalType": "address",
          "name": "voterAddress",
          "type": "address"
        }
      ],
      "name": "Vote",
      "outputs": [],
      "payable": false,
      "stateMutability": "nonpayable",
      "type": "function"
    },
    {
      "constant": true,
      "inputs": [
        {
          "internalType": "address",
          "name": "voterAddress",
          "type": "address"
        }
      ],
      "name": "checkVoted",
      "outputs": [],
      "payable": false,
      "stateMutability": "view",
      "type": "function"
    },
    {
      "constant": true,
      "inputs": [],
      "name": "Winner",
      "outputs": [
        {
          "internalType": "uint256",
          "name": "_winning",
          "type": "uint256"
        }
      ],
      "payable": false,
      "stateMutability": "view",
      "type": "function"
    }
  ],
  "bytecode": "0x608060405234801561001057600080fd5b50336000806101000a81548173ffffffffffffffffffffffffffffffffffffffff021916908373ffffffffffffffffffffffffffffffffffffffff16021790555060018060008060009054906101000a900473ffffffffffffffffffffffffffffffffffffffff1673ffffffffffffffffffffffffffffffffffffffff1673ffffffffffffffffffffffffffffffffffffffff168152602001908152602001600020600001819055506000600160008060009054906101000a900473ffffffffffffffffffffffffffffffffffffffff1673ffffffffffffffffffffffffffffffffffffffff1673ffffffffffffffffffffffffffffffffffffffff16815260200190815260200160002060010160016101000a81548160ff021916908315150217905550610728806101446000396000f3fe608060405234801561001057600080fd5b50600436106100575760003560e01c806328b444711461005c57806357ecf93b146100a057806398ada70a146100f1578063b2b98ed214610155578063f851a44014610173575b600080fd5b61009e6004803603602081101561007257600080fd5b81019080803573ffffffffffffffffffffffffffffffffffffffff1690602001909291905050506101bd565b005b6100ef600480360360408110156100b657600080fd5b81019080803560ff169060200190929190803573ffffffffffffffffffffffffffffffffffffffff169060200190929190505050610304565b005b6101536004803603604081101561010757600080fd5b81019080803573ffffffffffffffffffffffffffffffffffffffff169060200190929190803573ffffffffffffffffffffffffffffffffffffffff169060200190929190505050610523565b005b61015d61067b565b6040518082815260200191505060405180910390f35b61017b6106ce565b604051808273ffffffffffffffffffffffffffffffffffffffff1673ffffffffffffffffffffffffffffffffffffffff16815260200191505060405180910390f35b6000600160008373ffffffffffffffffffffffffffffffffffffffff1673ffffffffffffffffffffffffffffffffffffffff16815260200190815260200160002090508060010160019054906101000a900460ff1615610285576040517f08c379a000000000000000000000000000000000000000000000000000000000815260040180806020018281038252600e8152602001807f416c726561647920766f7465642e00000000000000000000000000000000000081525060200191505060405180910390fd5b600081600001541415610300576040517f08c379a00000000000000000000000000000000000000000000000000000000081526004018080602001828103825260148152602001807f486173206e6f20726967687420746f20766f746500000000000000000000000081525060200191505060405180910390fd5b5050565b6000600160008373ffffffffffffffffffffffffffffffffffffffff1673ffffffffffffffffffffffffffffffffffffffff16815260200190815260200160002090506000816000015414156103c2576040517f08c379a00000000000000000000000000000000000000000000000000000000081526004018080602001828103825260148152602001807f486173206e6f20726967687420746f20766f746500000000000000000000000081525060200191505060405180910390fd5b8060010160019054906101000a900460ff1615610447576040517f08c379a000000000000000000000000000000000000000000000000000000000815260040180806020018281038252600e8152602001807f416c726561647920766f7465642e00000000000000000000000000000000000081525060200191505060405180910390fd5b60058360ff1611156104c1576040517f08c379a000000000000000000000000000000000000000000000000000000000815260040180806020018281038252600c8152602001807f4f7574206f662072616e6765000000000000000000000000000000000000000081525060200191505060405180910390fd5b60018160010160016101000a81548160ff021916908315150217905550828160010160006101000a81548160ff021916908360ff160217905550806000015460028460ff166005811061051057fe5b0160008282540192505081905550505050565b600160008373ffffffffffffffffffffffffffffffffffffffff1673ffffffffffffffffffffffffffffffffffffffff16815260200190815260200160002060010160019054906101000a900460ff16806105cb57506000809054906101000a900473ffffffffffffffffffffffffffffffffffffffff1673ffffffffffffffffffffffffffffffffffffffff168173ffffffffffffffffffffffffffffffffffffffff1614155b156105d557600080fd5b6000600160008473ffffffffffffffffffffffffffffffffffffffff1673ffffffffffffffffffffffffffffffffffffffff16815260200190815260200160002060010160016101000a81548160ff02191690831515021790555060018060008473ffffffffffffffffffffffffffffffffffffffff1673ffffffffffffffffffffffffffffffffffffffff168152602001908152602001600020600001819055505050565b6000806000905060008090505b60058110156106c957816002826005811061069f57fe5b015411156106bc57600281600581106106b457fe5b015491508092505b8080600101915050610688565b505090565b6000809054906101000a900473ffffffffffffffffffffffffffffffffffffffff168156fea265627a7a7231582022ef399799e6572fe46246d28f55961b7275dc64bc442902fc03131d80ae447a64736f6c63430005100032",
  "source": "// SPDX-License-Identifier: GPL-3.0\r\n\r\ncontract Election{\r\n\r\n    struct Voter{\r\n        uint weight;\r\n        uint8 vote;\r\n        bool isVoted;\r\n    }\r\n\r\n    address public admin;\r\n    mapping(address=>Voter) voters;\r\n    uint[5] proposals;\r\n\r\n\r\n    constructor() public {\r\n        admin = msg.sender;\r\n        voters[admin].weight=1;\r\n        voters[admin].isVoted=false;\r\n    }\r\n\r\n\r\n    function Register(address toVoter, address adminAddress) public{\r\n\r\n        if(voters[toVoter].isVoted || adminAddress!=admin) revert();\r\n        voters[toVoter].isVoted=false;\r\n        voters[toVoter].weight=1;\r\n\r\n    }\r\n\r\n    function Vote(uint8 proposal, address voterAddress) public {\r\n        Voter storage sender = voters[voterAddress];\r\n        require(sender.weight != 0, \"Has no right to vote\");\r\n        require(!sender.isVoted, \"Already voted.\");\r\n        require(proposal<=proposals.length, \"Out of range\");\r\n        sender.isVoted = true;\r\n        sender.vote = proposal;\r\n\r\n        // If `proposal` is out of the range of the array,\r\n        // this will throw automatically and revert all\r\n        // changes.\r\n        proposals[proposal] += sender.weight;\r\n    }\r\n\r\n    function checkVoted(address voterAddress) public view {\r\n\r\n        Voter storage sender = voters[voterAddress];\r\n        require(!sender.isVoted, \"Already voted.\");\r\n        require(sender.weight != 0, \"Has no right to vote\");\r\n\r\n    }\r\n\r\n\r\n\r\n    function Winner() public view returns (uint _winning){\r\n        uint winningVoteCount = 0;\r\n        for(uint i=0;i<5;i++){\r\n            if(proposals[i]>winningVoteCount)\r\n            {\r\n                winningVoteCount=proposals[i];\r\n                _winning=i;\r\n            }\r\n        }\r\n    }\r\n\r\n}",
  "sourcePath": "D:\\CS Final Project\\voting_app\\contracts\\Election.sol",
  "compiler": {
    "name": "solc",
    "version": "0.5.16+commit.9c3226ce.Emscripten.clang"
  },
  "schemaVersion": "3.4.3",
  "updatedAt": "2022-03-31T01:24:01.440Z",
  "networkType": "ethereum",
  "devdoc": {
    "methods": {}
  },
  "userdoc": {
    "methods": {}
  }
}