{
  "contractName": "Election",
  "abi": [
    {
      "inputs": [],
      "payable": false,
      "stateMutability": "nonpayable",
      "type": "constructor"
    },
    {
      "constant": true,
      "inputs": [],
      "name": "admin",
      "outputs": [
        {
          "internalType": "address",
          "name": "",
          "type": "address"
        }
      ],
      "payable": false,
      "stateMutability": "view",
      "type": "function"
    },
    {
      "constant": false,
      "inputs": [
        {
          "internalType": "address",
          "name": "toVoter",
          "type": "address"
        },
        {
          "internalType": "address",
          "name": "adminAddress",
          "type": "address"
        }
      ],
      "name": "Register",
      "outputs": [],
      "payable": false,
      "stateMutability": "nonpayable",
      "type": "function"
    },
    {
      "constant": false,
      "inputs": [
        {
          "internalType": "uint8",
          "name": "proposal",
          "type": "uint8"
        },
        {
          "internalType": "address",
          "name": "voterAddress",
          "type": "address"
        }
      ],
      "name": "Vote",
      "outputs": [],
      "payable": false,
      "stateMutability": "nonpayable",
      "type": "function"
    },
    {
      "constant": true,
      "inputs": [],
      "name": "Winner",
      "outputs": [
        {
          "internalType": "uint256",
          "name": "_winning",
          "type": "uint256"
        }
      ],
      "payable": false,
      "stateMutability": "view",
      "type": "function"
    }
  ],
  "bytecode": "0x608060405234801561001057600080fd5b50336000806101000a81548173ffffffffffffffffffffffffffffffffffffffff021916908373ffffffffffffffffffffffffffffffffffffffff16021790555060018060008060009054906101000a900473ffffffffffffffffffffffffffffffffffffffff1673ffffffffffffffffffffffffffffffffffffffff1673ffffffffffffffffffffffffffffffffffffffff168152602001908152602001600020600001819055506000600160008060009054906101000a900473ffffffffffffffffffffffffffffffffffffffff1673ffffffffffffffffffffffffffffffffffffffff1673ffffffffffffffffffffffffffffffffffffffff16815260200190815260200160002060010160016101000a81548160ff0219169083151502179055506104a6806101446000396000f3fe608060405234801561001057600080fd5b506004361061004c5760003560e01c806357ecf93b1461005157806398ada70a146100a2578063b2b98ed214610106578063f851a44014610124575b600080fd5b6100a06004803603604081101561006757600080fd5b81019080803560ff169060200190929190803573ffffffffffffffffffffffffffffffffffffffff16906020019092919050505061016e565b005b610104600480360360408110156100b857600080fd5b81019080803573ffffffffffffffffffffffffffffffffffffffff169060200190929190803573ffffffffffffffffffffffffffffffffffffffff16906020019092919050505061027b565b005b61010e6103d3565b6040518082815260200191505060405180910390f35b61012c610426565b604051808273ffffffffffffffffffffffffffffffffffffffff1673ffffffffffffffffffffffffffffffffffffffff16815260200191505060405180910390f35b61017661044b565b600160008373ffffffffffffffffffffffffffffffffffffffff1673ffffffffffffffffffffffffffffffffffffffff168152602001908152602001600020604051806060016040529081600082015481526020016001820160009054906101000a900460ff1660ff1660ff1681526020016001820160019054906101000a900460ff1615151515815250509050806040015180610217575060058360ff16115b80610226575060008160000151145b1561023057600080fd5b600181604001901515908115158152505082816020019060ff16908160ff1681525050806000015160028460ff166005811061026857fe5b0160008282540192505081905550505050565b600160008373ffffffffffffffffffffffffffffffffffffffff1673ffffffffffffffffffffffffffffffffffffffff16815260200190815260200160002060010160019054906101000a900460ff168061032357506000809054906101000a900473ffffffffffffffffffffffffffffffffffffffff1673ffffffffffffffffffffffffffffffffffffffff168173ffffffffffffffffffffffffffffffffffffffff1614155b1561032d57600080fd5b6000600160008473ffffffffffffffffffffffffffffffffffffffff1673ffffffffffffffffffffffffffffffffffffffff16815260200190815260200160002060010160016101000a81548160ff02191690831515021790555060018060008473ffffffffffffffffffffffffffffffffffffffff1673ffffffffffffffffffffffffffffffffffffffff168152602001908152602001600020600001819055505050565b6000806000905060008090505b60058110156104215781600282600581106103f757fe5b01541115610414576002816005811061040c57fe5b015491508092505b80806001019150506103e0565b505090565b6000809054906101000a900473ffffffffffffffffffffffffffffffffffffffff1681565b604051806060016040528060008152602001600060ff168152602001600015158152509056fea265627a7a72315820e4a142e64f88f5bba506eb2cb048f6f831061a33e60043e285ee47b7424ed29e64736f6c63430005100032",
  "source": "// SPDX-License-Identifier: GPL-3.0\r\n\r\ncontract Election{\r\n\r\n    struct Voter{\r\n        uint weight;\r\n        uint8 vote;\r\n        bool isVoted;\r\n    }\r\n\r\n    address public admin;\r\n    mapping(address=>Voter) voters;\r\n    uint[5] proposals;\r\n\r\n\r\n    constructor() public {\r\n        admin = msg.sender;\r\n        voters[admin].weight=1;\r\n        voters[admin].isVoted=false;\r\n    }\r\n\r\n\r\n    function Register(address toVoter, address adminAddress) public{\r\n\r\n        if(voters[toVoter].isVoted || adminAddress!=admin) revert();\r\n        voters[toVoter].isVoted=false;\r\n        voters[toVoter].weight=1;\r\n\r\n    }\r\n\r\n    function Vote(uint8 proposal , address voterAddress) public {\r\n        Voter memory sender = voters[voterAddress];\r\n        if(sender.isVoted || proposal>proposals.length || sender.weight ==0) revert();\r\n        sender.isVoted=true;\r\n        sender.vote = proposal;\r\n        proposals[proposal] += sender.weight;\r\n    }\r\n\r\n    function Winner() public view returns (uint _winning){\r\n        uint winningVoteCount = 0;\r\n        for(uint i=0;i<5;i++){\r\n            if(proposals[i]>winningVoteCount)\r\n            {\r\n                winningVoteCount=proposals[i];\r\n                _winning=i;\r\n            }\r\n        }\r\n    }\r\n\r\n}",
  "sourcePath": "E:\\voting_app\\contracts\\Election.sol",
  "compiler": {
    "name": "solc",
    "version": "0.5.16+commit.9c3226ce.Emscripten.clang"
  },
  "schemaVersion": "3.4.3",
  "updatedAt": "2021-09-17T14:59:37.210Z",
  "networkType": "ethereum",
  "devdoc": {
    "methods": {}
  },
  "userdoc": {
    "methods": {}
  }
}